{
  "_format": "hh-sol-artifact-1",
  "contractName": "Transactions",
  "sourceName": "contracts/Transactions.sol",
  "abi": [
    {
      "anonymous": false,
      "inputs": [
        {
          "indexed": true,
          "internalType": "address",
          "name": "from",
          "type": "address"
        },
        {
          "indexed": true,
          "internalType": "address",
          "name": "receiver",
          "type": "address"
        },
        {
          "indexed": false,
          "internalType": "string",
          "name": "firstname",
          "type": "string"
        },
        {
          "indexed": false,
          "internalType": "string",
          "name": "location",
          "type": "string"
        },
        {
          "indexed": false,
          "internalType": "uint256",
          "name": "timestamp",
          "type": "uint256"
        },
        {
          "indexed": false,
          "internalType": "string",
          "name": "description",
          "type": "string"
        },
        {
          "indexed": false,
          "internalType": "string",
          "name": "availability",
          "type": "string"
        },
        {
          "indexed": false,
          "internalType": "string",
          "name": "transactionType",
          "type": "string"
        }
      ],
      "name": "Transfer",
      "type": "event"
    },
    {
      "inputs": [
        {
          "internalType": "string",
          "name": "firstname",
          "type": "string"
        },
        {
          "internalType": "string",
          "name": "location",
          "type": "string"
        },
        {
          "internalType": "string",
          "name": "description",
          "type": "string"
        },
        {
          "internalType": "string",
          "name": "availability",
          "type": "string"
        },
        {
          "internalType": "string",
          "name": "transactionType",
          "type": "string"
        }
      ],
      "name": "addToBlockchain",
      "outputs": [],
      "stateMutability": "nonpayable",
      "type": "function"
    },
    {
      "inputs": [],
      "name": "getAllTransactions",
      "outputs": [
        {
          "components": [
            {
              "internalType": "address",
              "name": "sender",
              "type": "address"
            },
            {
              "internalType": "address",
              "name": "receiver",
              "type": "address"
            },
            {
              "internalType": "string",
              "name": "firstname",
              "type": "string"
            },
            {
              "internalType": "string",
              "name": "location",
              "type": "string"
            },
            {
              "internalType": "uint256",
              "name": "timestamp",
              "type": "uint256"
            },
            {
              "internalType": "string",
              "name": "description",
              "type": "string"
            },
            {
              "internalType": "string",
              "name": "availability",
              "type": "string"
            },
            {
              "internalType": "enum Transactions.TransactionType",
              "name": "transactionType",
              "type": "uint8"
            }
          ],
          "internalType": "struct Transactions.TransferStruct[]",
          "name": "",
          "type": "tuple[]"
        }
      ],
      "stateMutability": "view",
      "type": "function"
    },
    {
      "inputs": [],
      "name": "getTransactionCount",
      "outputs": [
        {
          "internalType": "uint256",
          "name": "",
          "type": "uint256"
        }
      ],
      "stateMutability": "view",
      "type": "function"
    },
    {
      "inputs": [],
      "name": "transactionCount",
      "outputs": [
        {
          "internalType": "uint256",
          "name": "",
          "type": "uint256"
        }
      ],
      "stateMutability": "view",
      "type": "function"
    },
    {
      "inputs": [
        {
          "internalType": "uint256",
          "name": "",
          "type": "uint256"
        }
      ],
      "name": "transactions",
      "outputs": [
        {
          "internalType": "address",
          "name": "sender",
          "type": "address"
        },
        {
          "internalType": "address",
          "name": "receiver",
          "type": "address"
        },
        {
          "internalType": "string",
          "name": "firstname",
          "type": "string"
        },
        {
          "internalType": "string",
          "name": "location",
          "type": "string"
        },
        {
          "internalType": "uint256",
          "name": "timestamp",
          "type": "uint256"
        },
        {
          "internalType": "string",
          "name": "description",
          "type": "string"
        },
        {
          "internalType": "string",
          "name": "availability",
          "type": "string"
        },
        {
          "internalType": "enum Transactions.TransactionType",
          "name": "transactionType",
          "type": "uint8"
        }
      ],
      "stateMutability": "view",
      "type": "function"
    }
  ],
  "bytecode": "0x608060405234801561001057600080fd5b50611492806100206000396000f3fe608060405234801561001057600080fd5b50600436106100575760003560e01c806327506f531461005c5780632e7700f01461007a5780633f9471cf146100985780639ace38c2146100b4578063b77bf600146100eb575b600080fd5b610064610109565b6040516100719190611091565b60405180910390f35b6100826104ee565b60405161008f9190611157565b60405180910390f35b6100b260048036038101906100ad9190610c85565b6104f7565b005b6100ce60048036038101906100c99190610d74565b61089a565b6040516100e2989796959493929190610ff7565b60405180910390f35b6100f3610b5f565b6040516101009190611157565b60405180910390f35b60606001805480602002602001604051908101604052809291908181526020016000905b828210156104e55783829060005260206000209060080201604051806101000160405290816000820160009054906101000a900473ffffffffffffffffffffffffffffffffffffffff1673ffffffffffffffffffffffffffffffffffffffff1673ffffffffffffffffffffffffffffffffffffffff1681526020016001820160009054906101000a900473ffffffffffffffffffffffffffffffffffffffff1673ffffffffffffffffffffffffffffffffffffffff1673ffffffffffffffffffffffffffffffffffffffff16815260200160028201805461020d90611332565b80601f016020809104026020016040519081016040528092919081815260200182805461023990611332565b80156102865780601f1061025b57610100808354040283529160200191610286565b820191906000526020600020905b81548152906001019060200180831161026957829003601f168201915b5050505050815260200160038201805461029f90611332565b80601f01602080910402602001604051908101604052809291908181526020018280546102cb90611332565b80156103185780601f106102ed57610100808354040283529160200191610318565b820191906000526020600020905b8154815290600101906020018083116102fb57829003601f168201915b505050505081526020016004820154815260200160058201805461033b90611332565b80601f016020809104026020016040519081016040528092919081815260200182805461036790611332565b80156103b45780601f10610389576101008083540402835291602001916103b4565b820191906000526020600020905b81548152906001019060200180831161039757829003601f168201915b505050505081526020016006820180546103cd90611332565b80601f01602080910402602001604051908101604052809291908181526020018280546103f990611332565b80156104465780601f1061041b57610100808354040283529160200191610446565b820191906000526020600020905b81548152906001019060200180831161042957829003601f168201915b505050505081526020016007820160009054906101000a900460ff16600181111561049a577f4e487b7100000000000000000000000000000000000000000000000000000000600052602160045260246000fd5b60018111156104d2577f4e487b7100000000000000000000000000000000000000000000000000000000600052602160045260246000fd5b815250508152602001906001019061012d565b50505050905090565b60008054905090565b60016000808282546105099190611239565b9250508190555060006040518060400160405280600881526020017f446f6e6174696f6e000000000000000000000000000000000000000000000000815250805190602001208280519060200120141561056657600090506105f6565b6040518060400160405280600781526020017f526571756573740000000000000000000000000000000000000000000000000081525080519060200120828051906020012014156105ba57600190506105f5565b6040517f08c379a00000000000000000000000000000000000000000000000000000000081526004016105ec90611137565b60405180910390fd5b5b60016040518061010001604052803373ffffffffffffffffffffffffffffffffffffffff1681526020013373ffffffffffffffffffffffffffffffffffffffff168152602001888152602001878152602001428152602001868152602001858152602001836001811115610693577f4e487b7100000000000000000000000000000000000000000000000000000000600052602160045260246000fd5b815250908060018154018082558091505060019003906000526020600020906008020160009091909190915060008201518160000160006101000a81548173ffffffffffffffffffffffffffffffffffffffff021916908373ffffffffffffffffffffffffffffffffffffffff16021790555060208201518160010160006101000a81548173ffffffffffffffffffffffffffffffffffffffff021916908373ffffffffffffffffffffffffffffffffffffffff1602179055506040820151816002019080519060200190610769929190610b65565b506060820151816003019080519060200190610786929190610b65565b506080820151816004015560a08201518160050190805190602001906107ad929190610b65565b5060c08201518160060190805190602001906107ca929190610b65565b5060e08201518160070160006101000a81548160ff0219169083600181111561081c577f4e487b7100000000000000000000000000000000000000000000000000000000600052602160045260246000fd5b021790555050503373ffffffffffffffffffffffffffffffffffffffff163373ffffffffffffffffffffffffffffffffffffffff167f50947b6a225153dc0379100321a14e6bed35ccf5b6da38544db798cbc469321e88884289898960405161088a969594939291906110b3565b60405180910390a3505050505050565b600181815481106108aa57600080fd5b90600052602060002090600802016000915090508060000160009054906101000a900473ffffffffffffffffffffffffffffffffffffffff16908060010160009054906101000a900473ffffffffffffffffffffffffffffffffffffffff169080600201805461091990611332565b80601f016020809104026020016040519081016040528092919081815260200182805461094590611332565b80156109925780601f1061096757610100808354040283529160200191610992565b820191906000526020600020905b81548152906001019060200180831161097557829003601f168201915b5050505050908060030180546109a790611332565b80601f01602080910402602001604051908101604052809291908181526020018280546109d390611332565b8015610a205780601f106109f557610100808354040283529160200191610a20565b820191906000526020600020905b815481529060010190602001808311610a0357829003601f168201915b505050505090806004015490806005018054610a3b90611332565b80601f0160208091040260200160405190810160405280929190818152602001828054610a6790611332565b8015610ab45780601f10610a8957610100808354040283529160200191610ab4565b820191906000526020600020905b815481529060010190602001808311610a9757829003601f168201915b505050505090806006018054610ac990611332565b80601f0160208091040260200160405190810160405280929190818152602001828054610af590611332565b8015610b425780601f10610b1757610100808354040283529160200191610b42565b820191906000526020600020905b815481529060010190602001808311610b2557829003601f168201915b5050505050908060070160009054906101000a900460ff16905088565b60005481565b828054610b7190611332565b90600052602060002090601f016020900481019282610b935760008555610bda565b82601f10610bac57805160ff1916838001178555610bda565b82800160010185558215610bda579182015b82811115610bd9578251825591602001919060010190610bbe565b5b509050610be79190610beb565b5090565b5b80821115610c04576000816000905550600101610bec565b5090565b6000610c1b610c16846111a3565b611172565b905082815260208101848484011115610c3357600080fd5b610c3e8482856112f0565b509392505050565b600082601f830112610c5757600080fd5b8135610c67848260208601610c08565b91505092915050565b600081359050610c7f81611445565b92915050565b600080600080600060a08688031215610c9d57600080fd5b600086013567ffffffffffffffff811115610cb757600080fd5b610cc388828901610c46565b955050602086013567ffffffffffffffff811115610ce057600080fd5b610cec88828901610c46565b945050604086013567ffffffffffffffff811115610d0957600080fd5b610d1588828901610c46565b935050606086013567ffffffffffffffff811115610d3257600080fd5b610d3e88828901610c46565b925050608086013567ffffffffffffffff811115610d5b57600080fd5b610d6788828901610c46565b9150509295509295909350565b600060208284031215610d8657600080fd5b6000610d9484828501610c70565b91505092915050565b6000610da98383610f14565b905092915050565b610dba8161128f565b82525050565b610dc98161128f565b82525050565b6000610dda826111e3565b610de48185611206565b935083602082028501610df6856111d3565b8060005b85811015610e325784840389528151610e138582610d9d565b9450610e1e836111f9565b925060208a01995050600181019050610dfa565b50829750879550505050505092915050565b610e4d816112de565b82525050565b610e5c816112de565b82525050565b6000610e6d826111ee565b610e778185611217565b9350610e878185602086016112ff565b610e9081611420565b840191505092915050565b6000610ea6826111ee565b610eb08185611228565b9350610ec08185602086016112ff565b610ec981611420565b840191505092915050565b6000610ee1601883611228565b91507f496e76616c6964207472616e73616374696f6e207479706500000000000000006000830152602082019050919050565b600061010083016000830151610f2d6000860182610db1565b506020830151610f406020860182610db1565b5060408301518482036040860152610f588282610e62565b91505060608301518482036060860152610f728282610e62565b9150506080830151610f876080860182610fd9565b5060a083015184820360a0860152610f9f8282610e62565b91505060c083015184820360c0860152610fb98282610e62565b91505060e0830151610fce60e0860182610e44565b508091505092915050565b610fe2816112d4565b82525050565b610ff1816112d4565b82525050565b60006101008201905061100d600083018b610dc0565b61101a602083018a610dc0565b818103604083015261102c8189610e9b565b905081810360608301526110408188610e9b565b905061104f6080830187610fe8565b81810360a08301526110618186610e9b565b905081810360c08301526110758185610e9b565b905061108460e0830184610e53565b9998505050505050505050565b600060208201905081810360008301526110ab8184610dcf565b905092915050565b600060c08201905081810360008301526110cd8189610e9b565b905081810360208301526110e18188610e9b565b90506110f06040830187610fe8565b81810360608301526111028186610e9b565b905081810360808301526111168185610e9b565b905081810360a083015261112a8184610e9b565b9050979650505050505050565b6000602082019050818103600083015261115081610ed4565b9050919050565b600060208201905061116c6000830184610fe8565b92915050565b6000604051905081810181811067ffffffffffffffff82111715611199576111986113f1565b5b8060405250919050565b600067ffffffffffffffff8211156111be576111bd6113f1565b5b601f19601f8301169050602081019050919050565b6000819050602082019050919050565b600081519050919050565b600081519050919050565b6000602082019050919050565b600082825260208201905092915050565b600082825260208201905092915050565b600082825260208201905092915050565b6000611244826112d4565b915061124f836112d4565b9250827fffffffffffffffffffffffffffffffffffffffffffffffffffffffffffffffff0382111561128457611283611364565b5b828201905092915050565b600061129a826112b4565b9050919050565b60008190506112af82611431565b919050565b600073ffffffffffffffffffffffffffffffffffffffff82169050919050565b6000819050919050565b60006112e9826112a1565b9050919050565b82818337600083830152505050565b60005b8381101561131d578082015181840152602081019050611302565b8381111561132c576000848401525b50505050565b6000600282049050600182168061134a57607f821691505b6020821081141561135e5761135d6113c2565b5b50919050565b7f4e487b7100000000000000000000000000000000000000000000000000000000600052601160045260246000fd5b7f4e487b7100000000000000000000000000000000000000000000000000000000600052602160045260246000fd5b7f4e487b7100000000000000000000000000000000000000000000000000000000600052602260045260246000fd5b7f4e487b7100000000000000000000000000000000000000000000000000000000600052604160045260246000fd5b6000601f19601f8301169050919050565b6002811061144257611441611393565b5b50565b61144e816112d4565b811461145957600080fd5b5056fea264697066735822122054fb305dee1eaf0c75049ddc17d7f6eb0c58301c1deb765998c021e562cc2c4c64736f6c63430008000033",
  "linkReferences": {},
  "deployedLinkReferences": {}
}